:020000040000FA
:02000000932843
:0800080064281630B800B80BA3
:100010000728080099008316981C0C2883120800F2
:100020000D300A200A300A281F1405209F140800EA
:10003000A801A901A701AE01AF01B001B1013208C9
:1000400083120313AA0083120313330883120313CA
:10005000AB0003101030AC002D28AB0DAA0DA70D7E
:10006000A90DA80DAC0B37284C280000080027303C
:100070008400412029308400412028308400412020
:100080002D2803300007AD00AD1980003030000787
:10009000AD00AD1B8000080027080F39AE00270E09
:1000A0000F39AF0029080F39B000290E0F39B10000
:1000B0000800820730343134323433343434353448
:1000C0003634373438343934A100030EA2000A081C
:1000D000A3008A010C1B6D280900831203139F10D3
:1000E0001F10831603131E0883120313B300831219
:1000F00003131E08B2001820310859200A203008C6
:1001000059200A202F0859200A202E0859200A2099
:10011000102014208B280C1323088A00220E830041
:10012000A10E210E090083160317003089008316E3
:100130000313013086000713871701178312031377
:100140008B170B17831603130830990083160313BC
:1001500002309A008316031326309800831203138B
:1001600090309800831603178715831603130C121B
:100170008C1283160313B0309F00831603130514EB
:10018000051585158316031708148815081583129D
:1001900003139F019F17831603130C178312031376
:1001A0000C13831203131A084A300A2075300A20F0
:1001B0006E300A2069300A206F300A2072300A201F
:0601C00010201420E228CB
:02400E00F2239B
:02401000FF3F70
:00000001FF
