:02000000B32A21
:10000800FF00030E8301C7000A08C6008A017008B2
:10001800A2007108A1007208A0000B1D4228420826
:10002800F0004308F1004408F2004508F300F00A24
:100038000319F10A0319F20A0319F30A7008C20036
:100048007108C3007208C4007308C500450841065A
:10005800031D382844084006031D382843083F0676
:10006800031D382842083E06031D40280130B80009
:10007800C201C301C401C5010B11C1280B1C902882
:10008800061F6228E830F0000130F100F201F301A8
:100098003E08F0073F0803183F0FF1074008031810
:1000A800400FF20741080318410FF3077008BE001C
:1000B8007108BF007208C0007308C100861F782845
:1000C800E830F0000130F100F201F3017008BE02DF
:1000D8007108031C710FBF027208031C720FC00263
:1000E8007308031C730FC1024108003C031D8628D6
:1000F8004008003C031D86283F08013C031D862854
:100108003E08E83C031C8E28E930BE000130BF00E1
:10011800C001C1010B10C1280C1CC1283908F0000E
:100128003A08F1003B08F2003C08F300F00A031912
:10013800F10A0319F20A0319F30A7008B9007108E1
:10014800BA007208BB007308BC000030F0003C061F
:10015800031DB82870083B06031DB82870083A0626
:10016800031DB82839084C3A031DC0280130BD00CA
:10017800B901BA01BB01BC010C102208F00021082A
:10018800F1002008F20046088A00470E8300FF0E9F
:040198007F0E0900CD
:10019C0083120313F801F9011030FC00710DF80DF6
:1001AC00F90D7408F8027508031C750FF902031891
:1001BC00E6287408F80775080318750FF90703107B
:0A01CC00F00DF10DFC0BD428080023
:1001D60083120313D501053055020318F928550873
:1001E6005407840020308000D50AEE2855085407AD
:1001F60084008001D50355085407D6000A30F40060
:10020600F5015208F0005308F100CE207808F000FE
:100216007908F1003030F007560884007008800035
:100226000A30F400F5015208F0005308F100CE2020
:100236007008D2007108D30000307106031D25290D
:1002460000307006031D28292A29D503FE28080038
:10025600243083120313FD00FD0B2F290000080034
:10026600831603139818392900003329831252087C
:0402760099000800E3
:10027A00831203137008F100F0010830FC007108C2
:10028A00F40C03184C29FC0B4529F1010034031026
:10029A005129F40C0318F107F10CF00CFC0B4E2950
:0202AA0008004A
:1002AC0083120313CE01CF014908D0004A08D100B4
:1002BC0080304A06F00080307002031D6729003040
:1002CC004902031875290130CE000030CF004908CF
:1002DC00003CD0004A08031C013ED101D102500859
:1002EC00D2005108D3004B08D400EB200630CC00D0
:1002FC000030CD004D08003C031D86294C08003C05
:10030C000318A1294C084B07F20001304C02F000F5
:10031C000030031C013E4D02F10070084B078400B5
:10032C000008F00072088400700880000130CC02D4
:10033C00031CCD0380294B088400203080004E081C
:10034C004F040319BF29CC01CD014C084B07840085
:10035C000008203A031DB629CC0A0319CD0AAB2993
:10036C000130CC02031CCD034C084B0784002D300C
:04037C0080000800F5
:10038000C330831203139F05C0309F004908F0005B
:10039000F00D7010F00D701070089F0483169F17F9
:1003A00083121F142B219F149F1CD8290000D429CD
:1003B0001F101E08F100F00183161E08F004003023
:0403C000F10408003C
:1003C40083120313CB01490884000008CA004A08B9
:1003D400003A0319F7294A08D2003321CB0A4B0803
:0C03E400490784000008CA00E92908004D
:0E03F0008312031337088A00360882000800C3
:1003FE0083120313F8010830FC00700DF80D740819
:10040E00F80203180C2AF8070310F00DFC0B042A4F
:02041E000800D4
:1004200083120313B50A3508633C0318182AB50173
:100430000A30F4003508F000FF217008AB000A30E4
:0C044000F4003D2170083502AA000800FD
:10044C00043083120313C900C02170088312B30057
:10045C007108B4007008C9007108CA002C30CB00B8
:10046C0056212C30C900E2210A30D20033210D3044
:06047C00D200332108004C
:1004820083160313981690308312980083168717E9
:10049200071383128C1E502A1A08F0004A2A0800F9
:1004A2007C2AC0308312031387008616A62AF930ED
:1004B20087008616A62AA43087008612A62AB030A4
:1004C20087008612A62A993087008612A62A9230C1
:1004D20087008612A62A823087008612A62AF83062
:1004E20087008616A62A803087008612A62A9030B8
:1004F20087008612A62A831203134808003A0319BA
:10050200522A4808013A0319582A4808023A03199C
:100512005C2A4808033A0319602A4808043A031976
:10052200642A4808053A0319682A4808063A031952
:100532006C2A4808073A0319702A4808083A03192E
:0C054200742A4808093A0319782A0800B6
:10054E00F8218A110A128000840AB60A0319B70A22
:08055E00F003031DA72A0800A9
:100566004A3083120313A3007530A4006E30A50031
:100576006930A6006F30A7007230A800A9011030BC
:100586008316031788008901831287138813203086
:100596008316031385008701C03086008312850108
:1005A60005088600403083168100F8308B00C03085
:1005B60096000C148130831290000A30831699003D
:1005C600181541224130FC00EE30FD00FD0BE92AF2
:1005D600FC0BE92A00002330C900E221C201C30155
:1005E600C401C501B901BA01BB01BC01B80126307D
:1005F600BE002630BF00C001C101AA01AB01B50192
:10060600C030870081013808013A031D0C2B2622D1
:10061600B8013D08013A031D122B1022BD01061533
:1006260086102A08C8005122C330FC00CD30FD00D8
:10063600FD0B1B2BFC0B1B2B061186142B08C8006D
:100646005122C330FC00CD30FD00FD0B282BFC0BE6
:06065600282B062B2D2BC2
:04400E00F22F000786
:00000001FF
