:02000000B92C19
:10000800FF00030E8301BB000A08BC008A017008C8
:10001800A2007108A1008C1E3328A6247008A6002F
:100028007008413A031D322800303A06031D1E2885
:1000380001303906031D2428B124B901BA01312839
:1000480000303A06031D2A2800303906031D3128DE
:10005800F2230130B9000030BA0000008C122208E7
:10006800F0002108F1003C088A003B0E8300FF0ED7
:040078007F0E0900EE
:0E007C00F201F101F001F801F301003008007B
:10008A00FB14FB1F4F28FF30F300F200F100F000D1
:08009A00FA0DF20CFF30080022
:0800A200FA1FF2130030080000
:1000AA007B15FB1F5F280130F300F201F101F0011B
:0800BA00FA0DF20CFF30080002
:1000C200A0017208031D76287108F2007008F10081
:1000D200F001A0157208031D76287108F200F101E3
:1000E200A01120167208031984282008F302031DA8
:1000F200031C88280310F21B8C28F00DF10DF20D61
:10010200F30B7C2888280130FC003E208F28023027
:0E011200FC0055208F280430FC00512008000E
:100120007C18C628FC1897287C19E5289028A0017F
:100130007208031DB7287108F2007008F1007808F2
:10014000F000F801A0157208031DB7287108F2002D
:100150007008F100F001A01120167208031DB728E5
:100160007108F200F101A01572080319D9282008BE
:10017000F302031D031CDD280310F21BC628F80D33
:10018000F00DF10DF20DF30BBD28DD287B1B701C6B
:10019000E128F81FE128F00A0319F10A0319F20A0D
:1001A000031DE128F20CF10CF00CF30A0319E52809
:1001B000E1280130FC003E20E8280230FC005520F8
:1001C000E8280430FC005120E8280830FC004520D5
:0401D0000000080023
:1001D40083120313F801F9011030FC00710DF80DBE
:1001E400F90D7408F8027508031C750FF902031859
:1001F40002297408F80775080318750FF907031026
:0A020400F00DF10DFC0BF0280800CE
:10020E00243083120313FD00FD0B0B2900000800A0
:10021E00831603139818152900000F298312460818
:04022E00990008002B
:100232008312031372087606A000F801F90173080D
:100242007702031C3C297708FD007308F7007D083C
:10025200F3007608FD007208F6007D08F2007508CA
:10026200FD007108F5007D08F1007408FD007008BA
:10027200F4007D08F00077080319B5297208FA0026
:10028200F217F61777087302F70003196F2908307F
:100292007702031C6529F7007408F9007508F40059
:1002A2007608F500F60108307702031C6529F7008D
:1002B2007408F9007508F400F50108307702031C90
:1002C20065297A08F200B529770803196F29031006
:1002D200F60CF50CF40CF90CF70B6829A01F7C291D
:1002E200F909F409F509F609F90A0319F40A0319D7
:1002F200F50A0319F60A7908F80774080318740F47
:10030200F00775080318750FF10776080318760FC2
:10031200F207A01B9529031CA529F20CF10CF00C85
:10032200F80CF30FA529B1290318A929F809F00936
:10033200F109F209F80A0319F00A0319F10A03197B
:10034200F20A8030FA06AD290130FC009020B7296C
:100352000230FC009020B7290430FC006120B7294C
:100362000830FC004520B7290030FC0000000800DE
:1003720083120313FB01FA01F9018030F800F10C3A
:10038200F00C031CCD297408F90775080318750FC2
:10039200FA070318FB0A0310F01FD5297408FA079D
:1003A20075080318750FFB07FB0CFA0CF90CF80C17
:1003B200031CC0297B08F3007A08F2007908F100D7
:0603C2007808F0000800BD
:1003C80083120313C901053049020318F2294908A9
:1003D8004807840020308000C90AE72949084807EF
:1003E80084008001C90349084807CA000A30F4009C
:1003F800F5014608F0004708F100EA207808F00007
:100408007908F1003030F0074A088400700880004D
:100418000A30F400F5014608F0004708F100EA2028
:100428007008C6007108C70000307106031D1E2A37
:1004380000307006031D212A232AC903F729080062
:0E044800831203132C088A002B088200080080
:100456007B14FB1F362AF201FA1FFF30F200F1006F
:0A046600F000FA0DF20CFF30080060
:1004700083120313C201C3013D08C4003E08C50036
:1004800080303E06F00080307002031D492A0030A3
:100490003D020318572A0130C2000030C3003D0856
:1004A000003CC4003E08031C013EC501C5024408CF
:1004B000C6004508C7003F08C800E4210630C00058
:1004C0000030C1004108003C031D682A4008003C80
:1004D0000318832A40083F07F20001304002F00071
:1004E0000030031C013E4102F10070083F07840008
:1004F0000008F00072088400700880000130C0021B
:10050000031CC103622A3F08840020308000420897
:1005100043040319A12AC001C10140083F07840018
:100520000008203A031D982AC00A0319C10A8D2A1F
:100530000130C002031CC10340083F0784002D3076
:04054000800008002F
:1005440083120313FB01FC01FA0173080319E12A66
:10055400F2178E30F302F31BB22A0319B22AE42AEB
:10056400F309F30A08307302031CC72AF300F10DE0
:100574007208F100F20108307302031CC72AF10D5E
:10058400F1017308031D0310CF2A73080319CF2A3E
:100594000310F20CF10CF30BCA2A7B1B711CD92A31
:1005A400031CD92AF10A0319F20AF21BF02AFA1FD2
:1005B400F32AF209F109F10A0319F20AF32AF20102
:1005C400F101F32A7B14FB1FF62AF201FA1FF62A23
:1005D400FF30F200F100FA0DF20CF62A0130FC00B3
:1005E400F82A0030FC00F82AFF30FC00FC0803194C
:0E05F400FC2A2B227108F0007208F1000800AA
:1006020083120313FB017308031D77080319582B88
:1006120072087606FA007708F3077E30031C152B62
:10062200F30203185B2B182BF302031C5E2B7208D8
:10063200F8007108FC007008FD00F817F6170310A7
:10064200F201F101F0011830A0007D1C322B740878
:10065200F00775080318750FF10776080318760F6F
:10066200F207F20CF10CF00CF80CFC0CFD0C031070
:10067200A00B262BF21B422BF80DF00DF10DF20D03
:10068200F3037B1B701C542BF81F542BF00A031925
:10069200F10A0319F20A031D542BF20CF10CF00CAF
:1006A200F30A03195B2BFA1FF2130030602B01309F
:1006B2003E20602B02304520602B04305520000084
:0206C20008002E
:1006C400831203137008F8007108F000F101F201BD
:1006D400F301FB01FC019630F300FA017008F1000C
:0C06E4007808F000F801F2016120080025
:0C06F000831203138030F6061921080065
:1006FC0083120313BF013D0884000008BE003E08AE
:10070C00003A0319932B3E08C6000F21BF0A3F087D
:0C071C003D0784000008BE00852B08008B
:10072800C330831203139F05C0309F003D08F000BB
:10073800F00D7010F00D701070089F0483169F174D
:1007480083121F1407219F149F1CAC2B0000A82B99
:100758001F101E08F100F00183161E08F004003077
:04076800F104080090
:10076C00831603131208013EF000F1010318F10A7D
:10077C0083123D08F400F501B9210630F20070082F
:10078C00F4007108F50072080319D12BF50CF40C68
:10079C00F513FF3ECA2B0430F1007408F000710809
:1007AC000319DC2BF00D7010FF3ED62B83120313B4
:1007BC0030307005F3007408F0007508F100F10C8E
:1007CC00F00CF113F10CF00CF113700895000F30D4
:0807DC0097057308970408005B
:1007E400831603130711831212150C3097040800A3
:0C07F400831203139501171297120800DE
:100800008316031398169030831298008316871767
:10081000071383128C1E0F2C1A08F000092C0800F5
:1008200083120313FB01FC01F80173080319882CE0
:100830007208FA00F2179E30F302F31F782CF309C6
:10084000F30A08307302031C4D2CF300F80D7008F6
:10085000F8007108F0007208F100F201083073022C
:10086000031C4D2CF300F80D7008F8007108F0001F
:10087000F10108307302031C4D2CF300F80D7008D1
:10088000F800F00108307302031C4D2CF300F80D42
:10089000F8017308031D0310572C73080319572C14
:1008A0000310F20CF10CF00CF80CF30B502C7B1B2A
:1008B000781C652C031C652CF80A0319F00A03192F
:1008C000F10A0319F20AF21B852CFA1F882CF2098F
:1008D000F109F009F809F80A0319F00A0319F10AF5
:1008E0000319F20A882CF201F101F001F801882CB9
:1008F0007B14FB1F8B2CF201FA1F8B2CF200F100F2
:10090000F000F800FA0DF20C8B2C0130FC008D2C5D
:100910000030FC008D2CFF30FC00FC080319912CEA
:100920002B227208F3007108F2007008F1007808B9
:04093000F0000800CB
:1009340024228A110A128000840AAB0A0319AC0A21
:08094400F003031D9A2C0800CA
:10094C00831203131A08F100981CAE2C18121816F7
:06095C007108F000080024
:1009620083160313071583121211F030970508003E
:100972006D3083120313A3005630A400A501043086
:10098200831603178800FF300313850003178901BC
:10099200860103138710831287108601C0308B00F3
:1009A2000A30831699001815002483168C1603301A
:1009B200FB008A30FC005530FD00FD0BDE2CFC0BE9
:1009C200DE2CFB0BDE2C00000000831212149210AE
:1009D200F93083169200FA237F30B400F2233408F0
:1009E200BD00B6230130B9000030BA000230BD00AC
:1009F200942370088312B7007108B80062230E3086
:100A0200F4006730F5001C30F6008130F700012356
:100A1200A2227008B5007108B6007008BD00710806
:100A2200BE002D30BF0038222D30BD007E23233082
:100A3200BD007E230A30C6000F210D30C6000F21F3
:100A42003708F0003808F10062237130F4003D30BD
:100A5200F5004230F6008230F70001236B30F400DB
:100A6200DB30F5007230F6008730F700782310246F
:100A72007008A7007108A8007208A9007308AA00EC
:100A820080307306F40080307402031D522D003052
:100A92007202031D522D00307102031D522D0030CF
:100AA20070020318592D8312A701A801A901AA01F6
:100AB20083128030F00080302A067002031D6B2DF5
:100AC2002908003C031D6B2D2808003C031D6B2DDB
:100AD2002708FF3C0318722DFF30A700A801A901C7
:100AE200AA012708B4002708BD00B623F72C782DE9
:04400E00F22F000786
:00000001FF
