:020000040000FA
:040000000000442890
:08000800FD000308FE000A08D8
:10001000FF008B180E288C1A1C28312843303A20F8
:1000200061303A2072303A206C303A206F303A20FA
:1000300073303A20402031281A082602031C2A284F
:10004000031D2A282328861C2628282886143128C0
:1000500086103128061D2D282F2806153128061157
:1000600031288B108C127F088A007E088300FD0ED9
:100070007D0E090099008316981C3C288312080005
:100080000D303A200A303A288316031700308900D1
:100090008316031301308600071387170117831295
:1000A00003138B170B160B178316031308309900D5
:1000B0008316031302309A00831603132630980028
:1000C0008312031390309800831603178715831645
:1000D00003130C128C168312031343303A20613041
:1000E0003A2072303A206C303A206F303A20733028
:0A00F0003A2040206730A6007C286B
:02400E00E228A6
:02401000FF3E71
:00000001FF
