:020000040000FA
:04000000000046288E
:040004000034003490
:08000800F0000308F1000A08F2
:10001000F2000B1910288B1820280B1829283E28CD
:10002000A40B1E2885191528172885111928851550
:100030001928831203139830A4001E280B113E28A0
:1000400005192328252805112728051527288B1091
:100050003E28061A3228861A3528061B3828861BA1
:100060003B283E28553087003E280F3087003E2829
:10007000CC3087003E28C33087003E280B10720822
:0C0080008A0071088300F00E700E090069
:04008C0083160317BD
:10009000003089008316031700308800831603138D
:1000A000F13086000030870000308500F030960087
:1000B0004730810083120313003087009830A4007A
:0800C000F8308B008101632878
:02400E00E228A6
:02401000FF3E71
:00000001FF
