:040000008A15002835
:100006007B15FB1F0D280130F300F201F101F00111
:08001600FA0DF20CFF300800A6
:08001E00FA1FF2130030080084
:10002600FB14FB1F1D28FF30F300F200F100F00067
:08003600FA0DF20CFF30080086
:0E003E00F201F101F001F801F30100300800B9
:0C004C00000000000000000000000800A0
:0E005800533083120313FD00FD0B3028080007
:10006600243083120313FC00B530FD00FD0B392844
:0A007600FC0B392800000000080010
:10008000A0017208031D55287108F2007008F100E4
:10009000F001A0157208031D55287108F200F10146
:1000A000A01120167208031963282008F302031D0B
:1000B000031C67280310F21B6B28F00DF10DF20DE5
:1000C000F30B5B2867280130FC001F206E280230EC
:0E00D000FC0003206E280430FC000F20080006
:1000DE007C18A528FC1876287C19C4286F28A00146
:1000EE007208031D96287108F2007008F100780856
:1000FE00F000F801A0157208031D96287108F20091
:10010E007008F100F001A01120167208031D962848
:10011E007108F200F101A01572080319B828200821
:10012E00F302031D031CBC280310F21BA528F80DB7
:10013E00F00DF10DF20DF30B9C28BC287B1B701CEF
:10014E00C028F81FC028F00A0319F10A0319F20A91
:10015E00031DC028F20CF10CF00CF30A0319C4288D
:10016E00C0280130FC001F20C7280230FC000320ED
:10017E00C7280430FC000F20C7280830FC001320CD
:04018E000000080065
:06019200FB15FF30080020
:1001980083120317B01BD2288611D3288615301B6B
:1001A800D7280611D8280615B01ADC288610DD28AD
:1001B8008614301AE1280610E2280614031368187A
:1001C800E7280616E8280612861626208612031740
:1001D800B019F0288611F12886153019F52806116E
:1001E800F6280615B018FA288610FB288614301849
:1001F800FF28061000290614031368180529061697
:1002080006290612861626208612681C0D29332018
:060218000E292C20080055
:10021E008312031372087606A000F801F901730821
:10022E007702031C32297708FD007308F7007D085A
:10023E00F3007608FD007208F6007D08F2007508DE
:10024E00FD007108F5007D08F1007408FD007008CE
:10025E00F4007D08F00077080319AB297208FA0044
:10026E00F217F61777087302F7000319652908309D
:10027E007702031C5B29F7007408F9007508F40077
:10028E007608F500F60108307702031C5B29F700AB
:10029E007408F9007508F400F50108307702031CA4
:1002AE005B297A08F200AB29770803196529031038
:1002BE00F60CF50CF40CF90CF70B5E29A01F722945
:1002CE00F909F409F509F609F90A0319F40A0319EB
:1002DE00F50A0319F60A7908F80774080318740F5B
:1002EE00F00775080318750FF10776080318760FD7
:1002FE00F207A01B8B29031C9B29F20CF10CF00CAE
:10030E00F80CF30F9B29A72903189F29F809F00968
:10031E00F109F209F80A0319F00A0319F10A03198F
:10032E00F20A8030FA06A3290130FC006F20AD29B5
:10033E000230FC006F20AD290430FC004020AD29B6
:10034E000830FC001320AD290030FC00000008002E
:10035E0083120317AB01AD01AE011030AF000430B4
:10036E002E020318DF29F0300313870003172F091D
:10037E00831603138700262026200F3083120705CD
:10038E00F00070080317AC0070080319D9292D0866
:10039E00AB002C080319D729AC0CAC13AB0AD0292F
:1003AE000430AE00AF0D2F100430AD07AE0AB629E3
:0603BE002B08F00008000E
:1003C400103083120313FD00FD0BE6290000080022
:1003D40083120313681003172B08B000CC20681491
:0203E40008000F
:1003E600831203172B08F2007208F100F20A2C0898
:1003F600F000AC0A700884000008F0007108840060
:100406007008800071088400000803190B2AF72978
:060416002B08F0000800B5
:10041C0083120313FA017308031D7A147708031D62
:10042C00FA147A0803195A2A033A0319252A7A1856
:10043C00222AF61F582A562AF21F562A582A7208C0
:10044C008039FA00F21376088039F6137A0603190C
:10045C00332A7A080319562A582A77087302031983
:10046C003A2A031C4E2A522A760872020319412A90
:10047C00031C4E2A522A750871020319482A031CC0
:10048C004E2A522A7408700203195A2A0318522A47
:10049C00FA080319582A562AFA080319562A582A10
:1004AC0003140800031008000314031508000800C7
:1004BC0083120313F8010830FC00700DF80D74085A
:1004CC00F80203186B2AF8070310F00DFC0B632AD3
:0204DC00080016
:0E04DE00831203136E088A006D088200080066
:0C04EC00831203138030F6060F21080075
:1004F800831203137408003A031D972A7508003AFB
:10050800031D972A7608003A031D972A7708003AB0
:10051800031D972AFF30F000FF30F1007F30F20012
:10052800FF30F30008008312031377080319262B02
:1005380073080319292B720876068039FA00F21716
:10054800F617A0017208F8007108FC007008FD0099
:100558007408FD027508031C750FFC027608031C5D
:10056800760FF802F801FC01FD01031CC22A0310F2
:10057800F20CF10CF00CF80C0130A0007708F30233
:10058800031CCC2A7E302007F30703182C2BD12A12
:100598007E302007F307031C2F2B1830FA07FD0DB8
:1005A800FC0DF80DF00DF10DF20DA00D7408F00220
:1005B8007508031C750FF1027608031C760FF2020A
:1005C800760DA004201CEA2A7D14F52A7408F00789
:1005D80075080318750FF10776080318760AF207ED
:1005E8007D10FA031F307A05031DD32A7B1B7D1C5F
:1005F8001C2B0310F00DF10DF20DA00D7408F00284
:100608007508031C750FF1027608031C760FF202B9
:10061800760D20040139FD070318FC0A0319F80AAE
:10062800031D1C2BF80CFC0CFD0CF30A03192C2BD6
:10063800FA1FF8137808F2007C08F1007D08F00032
:100648000030312B0130C920312B02301F20312BD3
:0E06580004301320312B08300320000008006E
:1006660083120313FB017308031D770803198A2BF2
:1006760072087606FA007708F3077E30031C472BCC
:10068600F30203188D2B4A2BF302031C902B7208DE
:10069600F8007108FC007008FD00F817F617031043
:1006A600F201F101F0011830A0007D1C642B7408E2
:1006B600F00775080318750FF10776080318760F0B
:1006C600F207F20CF10CF00CF80CFC0CFD0C03100C
:1006D600A00B582BF21B742BF80DF00DF10DF20D3B
:1006E600F3037B1B701C862BF81F862BF00A03195D
:1006F600F10A0319F20A031D862BF20CF10CF00C19
:10070600F30A03198D2BFA1FF2130030922B0130D6
:100716001F20922B02301320922B0430032000005E
:020726000800C9
:10072800831203137008F100F001FD017108031929
:1007380000347406F200F21BFD09F41FA92BF4091A
:10074800F40AF109F10AF41BBF2B0730FC00710809
:10075800F40C0318B62BFC0BAC2BF1010034F40C91
:100768000318F107FD0DF10CF00CFC0BB32BFD0D7C
:10077800F10CF00C0034F1017D0DF10CF00C00349B
:02078800080067
:10078A0083120317A901AA012008A5002108A600BF
:10079A002208A7002308A8002808FF3A031DDF2B18
:1007AA002708FF3A031DDF2B2608FF3A031DDF2B1C
:1007BA002508FF3A031DE92B2408AB006230AC0080
:1007CA00F3210330F0000800831603130130EE0012
:1007DA0083120317A71F002C80302706F000700829
:1007EA00A70083160313EE0A831203172408840052
:1007FA002D308000A40A0030F0002806031D0F2CBB
:10080A0070082706031D0F2C70082606031D0F2CDF
:10081A002508003A031D182C2408AB006030AC00F0
:10082A00F321F00108002808FF3A031D262C2708A7
:10083A00003A031D262C2608003A031D262C2508FB
:10084A00003A031D322C2408AB005C30AC00F321C3
:10085A00831603136E08F00008000030F40000301D
:10086A00F5000030F6007F30F700831203172508E1
:10087A00F0002608F1002708F2002808F3000E22EB
:10088A00013003180030F00070080319692C0317AF
:10089A002508F0002608F1002708F2002808F300CE
:1008AA000030F4000030F5002030F6008230F70006
:1008BA00332370080317A5007108A6007208A70061
:1008CA007308A800AA03322C03170030F400003082
:1008DA00F5002030F6008230F7002508F0002608DF
:1008EA00F1002708F2002808F3000E220130031C49
:1008FA000030F000700803199F2C03172508F00038
:10090A002608F1002708F2002808F300CD30F40089
:10091A00CC30F5004C30F6007B30F70033237008FA
:10092A000317A5007108A6007208A7007308A8009B
:10093A00AA0A692C0317FF302505F800FF3026059F
:10094A00F9007F302705FA0000302805FB007808F7
:10095A00F4007908F5007A08F6007B08F700F40D30
:10096A00F50DF60DF70D741000302505F000003076
:10097A002605F10000302705F200FF302805F300B4
:10098A007008A5007108A6007208A7007308A800DD
:10099A0074082504F00075082604F1007608270477
:1009AA00F20077082804F3007008A5007108A60071
:1009BA007208A7007308A8007F302802F0007008A8
:1009CA0083160313EF00013083120317A80070087F
:1009DA00F4002508F0002608F1002708F20028088C
:1009EA00F30074080319002DF00DF10DF20DF30D4B
:1009FA007010FF3EF72C7008A5007108A600720857
:100A0A00A7007308A8002808303EF00024088400D4
:100A1A0070088000A40A80302A06F0008030013A6B
:100A2A007002031C212D8030063AF00080302A061D
:100A3A007002031C212D282D240884002E308000EA
:100A4A00A40A0130A900063083160313EF006F08C9
:100A5A00003A03198C2D83120317A8012508F00008
:100A6A002608F1002708F2002808F300F00DF10D1E
:100A7A00F20DF30D7010F00DF10DF20DF30D701073
:100A8A002508F00726080318260FF1072708031878
:100A9A00270FF20728080318280FF3077008A50084
:100AAA007108A6007208A7007308A8002508F000BC
:100ABA002608F1002708F2002808F300F00DF10DCE
:100ACA00F20DF30D70107008A5007108A6007208E7
:100ADA00A7007308A8002808303EF0002408840004
:100AEA0070088000A40A2908003A031D882DAA0369
:100AFA002A08003A031D882D240884002E3080001D
:100B0A00A40A0130A90083160313EF032C2DFF302A
:100B1A0083120317240784000008303A031D972D17
:100B2A00A4038C2DFF302407840000082E3A031DED
:100B3A009F2DA4032A08003A0319E22D24088400F1
:100B4A0065308000A40A80302A06F0008030003A1E
:100B5A0070020318B82D240884002D308000A40ADE
:100B6A002A08003CAA002A0883160313EF008312FE
:100B7A0003172A08093C0318D12D0A30F4008316FA
:100B8A0003136F08F0005E223030F00703172408C1
:100B9A00840070088000A40A0A30F4008316031344
:100BAA006F08F0005E227808F0003030F007031773
:100BBA002408840070088000A40A240884008001A4
:040BCA00F00108002E
:100BCE00AF21700883160313EE000F308312070552
:100BDE00F0000319F42DE221EC2D83166E08F000BF
:020BEE000800FD
:100BF000831203137008F8007108F000F101F2018C
:100C0000F301FB01FC019630F300FA01F01F0E2EF8
:100C1000F809F009F80A0319F00AFA177008F10048
:0C0C20007808F000F801F2014020080004
:100C2C00282E803083120317A0003B2EC030A0006A
:100C3C003B2E9430A0003B2ED430A0003B2E8030B5
:100C4C00A0003B2E831203172008013A0319172E1C
:100C5C002008023A03191C2E2008033A03191F2EF0
:100C6C002008043A0319222E252E2103F000200817
:100C7C00F0077008A0000313681470080317B00085
:100C8C00CC20681003172208B000CC206814080090
:100C9C00C42E831603134A08F0004B08F1004C08CD
:100CAC00F2004D08F30083126908F4006A08F5009D
:100CBC006B08F6006C08F7000F2170088316CE0045
:100CCC007108CF007208D0007308D100D62E8312A1
:100CDC006908F4006A08F5006B08F6006C08F70068
:100CEC0083164A08F0004B08F1004C08F2004D083E
:100CFC00F300762270088316CE007108CF007208BC
:100D0C00D0007308D100D62E83164A08F0004B0889
:100D1C00F1004C08F2004D08F30083126908F4004E
:100D2C006A08F5006B08F6006C08F70033237008AE
:100D3C008316CE007108CF007208D0007308D10062
:100D4C00D62E83126908F4006A08F5006B08F600C9
:100D5C006C08F70083164A08F0004B08F1004C08A9
:100D6C00F2004D08F3007C2270088316CE00710847
:100D7C00CF007208D0007308D100D62E8312031353
:100D8C006F082B3A03194F2E6F082D3A03196D2E4D
:100D9C006F08783A03198A2E6F082F3A0319A72E79
:020DAC0008003D
:0A0DAE00FF308316031387000800CE
:100DB8006F228A110A128000840AED0A0319EE0ACA
:080DC800F003031DDC2E0800FE
:100DD000831603138612061206108610061186115A
:100DE0008312861206128611061186100610332011
:100DF00033203320861406148616262086123320CC
:100E00008616262086123320861626208612332048
:100E10000610861626208612332086162620861275
:100E20008610861586162620861233208611061413
:100E30008616262086120610861626208612332055
:100E40008616262086120614861626208612332041
:100E50000610861626208612861506158614061498
:0C0E600086162620861233206814080035
:100E6C0083120313FB01FA01F9018030F800F10C35
:100E7C00F00C031C4A2F7408F90775080318750F3A
:100E8C00FA070318FB0A0310F01F522F7408FA0715
:100E9C0075080318750FFB07FB0CFA0CF90CF80C12
:100EAC00031C3D2F7B08F3007A08F2007908F1004F
:060EBC007808F0000800B8
:100EC200732F803083120317A000862FC030A0003A
:100ED200862F9430A000862FD430A000862F803039
:100EE200A000862F831203172008013A0319622FEC
:100EF2002008023A0319672F2008033A03196A2FC0
:100F02002008043A03196D2F702F2103F0002008E6
:100F1200F0077008A0007008B000CC20681083169B
:100F2200EE016E08831203172207840000080319DA
:100F3200A72F831603136E08831203172207840058
:100F42000008AB00EA218316EE0A922F03138312E4
:040F52006814080017
:1010000014248A11D7268A150317880189018A11A9
:10101000E8268A1501300317B0008A11CC208A1502
:101020000C300317B0008A11CC208A150130031749
:10103000A0000130A1002E30A2008A1161278A157C
:1010400002300317A0000130A1002130A2008A1154
:1010500061278A151A30FB005E30FC006E30FD00FF
:10106000FD0B3028FC0B3028FB0B30280000013032
:101070000317B0008A11CC208A1501300317A00095
:101080000130A100AE30A2008A1161278A158312B7
:10109000EF018A11E7258A1570088312EF007008A6
:1010A000031949289B283730EF0007308316E100E9
:1010B000C92838308312EF0008308316E100C928B0
:1010C00039308312EF0009308316E100C92834302B
:1010D0008312EF0004308316E100C92835308312F3
:1010E000EF0005308316E100C92836308312EF0087
:1010F00006308316E100C92831308312EF00013039
:101100008316E100C92832308312EF0002308316C3
:10111000E100C92833308312EF0003308316E10069
:10112000C92843308312EF00C9283030EF008316FE
:10113000E101C928472883126F08013A031953288F
:101140006F08023A031959286F08033A03196028F7
:101150006F08053A031967286F08063A03196E28C5
:101160006F08073A031975286F08093A03197C2894
:101170006F080A3A031983286F080B3A03198A2863
:101180006F080D3A031991286F080E3A0319952834
:101190009A28831202300317A0000313660803176E
:1011A000A10003136F080317A2008A1116268A15DF
:1011B0006708E23E84008316610880008312E60A15
:1011C000E70A6F08433A0319E62847286708033AF5
:1011D000031DFD2883166308F0000030F01BFF306C
:1011E000F1008A11F8258A1570088316CA00710863
:1011F000CB007208CC007308CD0083126708043A54
:10120000031D1F2983166308F0000A30F4008A11B9
:1012100094238A1583166408F0070318F10A003036
:10122000E41BFF30F1078A11F8258A157008831630
:10123000CA007108CB007208CC007308CD0083127D
:101240006708053A031D532983166308F0006430CC
:10125000F4008A1194238A1570088316EC00710833
:10126000ED006408F0000A30F4008A1194238A1516
:1012700083166C08F0076D080318013EF107650836
:10128000F0070318F10A0030E51BFF30F1078A115F
:10129000F8258A1570088316CA007108CB007208F9
:1012A000CC007308CD0083126708063A031D9B2902
:1012B00083166308F0000030F01BFF30F100E830C7
:1012C000F4000330F5008A1136278A15700883165A
:1012D000EC007108ED006408F0006430F4008A113D
:1012E00094238A1570088316EC0771080318013ED1
:1012F000ED076508F0000A30F4008A1194238A157E
:1013000083166C08F0076D080318013EF1076608A4
:10131000F0070318F10A0030E61BFF30F1078A11CD
:10132000F8258A1570088316CA007108CB00720868
:10133000CC007308CD008316E401E301E501083019
:101340008312E6000130E70001300317B0008A1174
:10135000CC208A1501300317A0000130A100BC3059
:10136000A2008A1161278A158312EF018A11E725ED
:101370008A1570088312EF0070080319B629082A2D
:101380003730EF0007308316E100362A38308312F9
:10139000EF0008308316E100362A39308312EF005F
:1013A00009308316E100362A34308312EF0004300E
:1013B0008316E100362A35308312EF00053083169C
:1013C000E100362A36308312EF0006308316E10042
:1013D000362A31308312EF0001308316E100362ABD
:1013E00032308312EF0002308316E100362A3330A8
:1013F0008312EF0003308316E100362A4330831254
:10140000EF00362A3030EF008316E101362AB42986
:1014100083126F08013A0319C0296F08023A0319B1
:10142000C6296F08033A0319CD296F08053A031935
:10143000D4296F08063A0319DB296F08073A031904
:10144000E2296F08093A0319E9296F080A3A0319D2
:10145000F0296F080B3A0319F7296F080D3A0319A1
:10146000FE296F080E3A0319022A072A8312023056
:101470000317A000031366080317A10003136F08E6
:101480000317A2008A1116268A156708E23E840017
:101490008316610880008312E60AE70A6F08433A60
:1014A0000319532AB4296708033A031D692A8316CE
:1014B0006308F0000030F01BFF30F1008A11F825BE
:1014C0008A157008E9007108EA007208EB007308D9
:1014D000EC006708043A031D892A83166308F000AC
:1014E0000A30F4008A1194238A1583166408F007E1
:1014F0000318F10A0030E41BFF30F1078A11F825C8
:101500008A157008E9007108EA007208EB00730898
:10151000EC006708053A031DBB2A83166308F00038
:101520006430F4008A1194238A1570088316EC0045
:101530007108ED006408F0000A30F4008A11942369
:101540008A1583166C08F0076D080318013EF10731
:101550006508F0070318F10A0030E51BFF30F107BA
:101560008A11F8258A157008E9007108EA007208E6
:10157000EB007308EC006708063A031D012B831685
:101580006308F0000030F01BFF30F100E830F40099
:101590000330F5008A1136278A1570088316EC008F
:1015A0007108ED006408F0006430F4008A1194239F
:1015B0008A1570088316EC0771080318013EED07C1
:1015C0006508F0000A30F4008A1194238A15831606
:1015D0006C08F0076D080318013EF1076608F00774
:1015E0000318F10A0030E61BFF30F1078A11F825D5
:1015F0008A157008E9007108EA007208EB007308A8
:10160000EC008316E301E501E40108308312E600F3
:101610000130E700EF0101300317B0008A11CC2040
:101620008A1501300317A0000130A100A030A200EC
:101630008A1161278A158A11E7258A157008831295
:10164000EF00700803191B2B8C2B2F30EF0002309A
:101650000317A000031366080317A1002F30A20090
:101660008A1116268A158A114E268A159D2B7830E6
:1016700083120313EF0002300317A0000313660860
:101680000317A1007830A2008A1116268A158A1144
:101690004E268A159D2B2D3083120313EF00023046
:1016A0000317A000031366080317A1002D30A20042
:1016B0008A1116268A158A114E268A159D2B2B30E3
:1016C00083120313EF0002300317A0000313660810
:1016D0000317A1002B30A2008A1116268A158A1141
:1016E0004E268A159D2B023083120317A00001306D
:1016F000A1004B30A2008A1161278A151A30FB0025
:101700005E30FC006E30FD00FD0B842BFC0B842B47
:10171000FB0B842B00000A2B6F08043A0319252BBE
:101720006F08083A0319372B6F080C3A03194B2B33
:101730006F08103A03195F2B732B0830FB009D30A4
:10174000FC000530FD008312FD0BA32BFC0BA32B2B
:10175000FB0BA32B0000000001300317B0008A111F
:10176000CC208A1501300317A0000130A1003D30C4
:10177000A2008A1161278A1583164E088312031767
:10178000A000831603134F0883120317A1008316CA
:101790000313500883120317A20083160313510882
:1017A00083120317A300D230A4008A11C5238A151F
:1017B000023083120317A0000430A100D230A2002F
:1017C0008A1161278A154D30FB001930FC004F301B
:1017D000FD00FD0BE92BFC0BE92BFB0BE92B0000BB
:0617E00000003728F22B87
:1018280021308400453083120313F000AB30ED0003
:101838000730EE008A11DC268A15A03084000E30AD
:10184800F000F030ED000730EE008A11DC268A1532
:10185800663084000130F000FF30ED000730EE0004
:101868008A11DC268A15AE3084001C30F000F8306E
:10187800ED000B30EE008A11DC268A1567308400F3
:101888000130F000FE30ED000730EE008A11DC2652
:041898008A150800A5
:100F56002034203420342034203443342E34413499
:0A0F66002E3454342E34413400348C
:100F7000203420342034433461346C346334753489
:0E0F80006C34613464346F3472346134003484
:100F8E0020342034203452346534733475346C3448
:0C0F9E007434613464346F343A3400342D
:100FAA004534733463346F346A34613420344F34D3
:100FBA007034653472346134633469346F346E3436
:020FCA000034F1
:080FCC0049344E344634003470
:040FD4003034003481
:080FD8004E3461344E34003444
:100FE0002034203420344F3470346534723461340A
:0C0FF000633469346F346E343F340034D5
:020FFC000134BE
:020FFE000834B5
:1017F00020342034203420345034723469346D3431
:0C18000065347234203423343F3400344B
:10180C0020342034203453346534673475346E34CA
:0C181C0064346F34203423343F34003433
:04400E00F22F000786
:00000001FF
