:02000000002BD3
:10000600243083120313FC00B530FD00FD0B0928D4
:0A001600FC0B0928000000000800A0
:0C002000000000000000000000000800CC
:10002C00FB14FB1F2028FF30F300F200F100F0005E
:08003C00FA0DF20CFF30080080
:0E004400533083120313FD00FD0B2628080025
:100052007B15FB1F33280130F300F201F101F0019F
:08006200FA0DF20CFF3008005A
:08006A00FA1FF2130030080038
:0E007200F201F101F001F801F3010030080085
:100080007C187628FC1847287C1995284028A00160
:100090007208031D67287108F2007008F1007808E3
:1000A000F000F801A0157208031D67287108F2001E
:1000B0007008F100F001A01120167208031D6728D6
:1000C0007108F200F101A0157208031989282008AF
:1000D000F302031D031C8D280310F21B7628F80D74
:1000E000F00DF10DF20DF30B6D288D287B1B701CAC
:1000F0009128F81F9128F00A0319F10A0319F20A4E
:10010000031D9128F20CF10CF00CF30A0319952849
:1001100091280130FC00392098280230FC00292069
:1001200098280430FC00352098280830FC00162060
:0401300000000800C3
:1001340083120313D51BA0288611A1288615551BED
:10014400A5280611A6280615D51AAA288610AB28B4
:100154008614551AAF280610B02806144118B4287E
:100164000616B5280612861610208612D519BC2844
:100174008611BD2886155519C1280611C2280615F1
:10018400D518C6288610C72886145518CB280610FB
:10019400CC2806144118D0280616D1280612861633
:1001A40010208612411CD8280320D92822200800B8
:1001B400A0017208031DEF287108F2007008F10015
:1001C400F001A0157208031DEF287108F200F10177
:1001D400A011201672080319FD282008F302031D3C
:1001E400031C01290310F21B0529F00DF10DF20D7A
:1001F400F30BF52801290130FC00392008290230CD
:0E020400FC00292008290430FC0035200800E9
:100212008312031341105008D5009A20411408009C
:10022200103083120313FD00FD0B15290000080096
:1002320083120313D001D201D3011030D400043051
:10024200530203184529F0308700540983168700AA
:10025200102010200F3083120705F0007008D10023
:10026200700803193F295208D000510803193D298B
:10027200D10CD113D00A36290430D300D40D541036
:0E0282000430D207D30A20295008F0000800EB
:0E0290008312031337088A0036088200080024
:10029E00831203137008F8007108F000F101F201E7
:1002AE00F301FB01FC019630F300FA01F01F652902
:1002BE00F809F009F80A0319F00AFA177008F100A4
:0C02CE007808F000F801F201DA200800C6
:1002DA0083120313F801F9011030FC00710DF80DB7
:1002EA00F90D7408F8027508031C750FF902031852
:1002FA0085297408F80775080318750FF90703109C
:0A030A00F00DF10DFC0B7329080043
:10031400831203137008F100F0010830FC00710827
:10032400F40C03189929FC0B9229F10100340310F1
:100334009E29F40C0318F107F10CF00CFC0B9B291B
:020344000800AF
:10034600831203137008F800FB01FC019E30F300D2
:10035600FA01F201F101F0010230FC004020080030
:10036600831203133508F0000A30F4008A21380896
:10037600F0070318F10A4F217008CB007108CC0072
:100386007208CD007308CE003808003A031DD6293E
:100396003508F000A3217008CB007108CC00720864
:1003A600CD007308CE004B08F0004C08F1004D0854
:0803B600F2004E08F3000800FC
:1003BE0019217008CB000F300705F0000319E92949
:0A03CE001121E2294B08F00008009D
:1003D800FE29803083120313CB00112AC030CB00D2
:1003E800112A9430CB00112AD430CB00112A803046
:1003F800CB00112A831203134B08013A0319ED2984
:100408004B08023A0319F2294B08033A0319F52954
:100418004B08043A0319F829FB294C03F0004B0850
:10042800F0077008CB0041147008D5009A204110DD
:0A0438004D08D5009A204114080079
:1004420083120313CE0105304E0203182F2A4E08E1
:100452004D07840020308000CE0A242A4E084D0722
:1004620084008001CE034E084D07CF000A30F4000D
:10047200F5014B08F0004C08F1006D217808F000FE
:100482007908F1003030F0074F08840070088000CE
:100492000A30F400F5014B08F0004C08F1006D2120
:1004A2007008CB007108CC0000307106031D5B2A76
:1004B20000307006031D5E2A602ACE03342A08002B
:0A04C200FF308316031387000800C3
:1004CC008316031386120612061086100611861167
:1004DC00831286120612861106118610061003204E
:1004EC00032003208614061486161020861203207F
:1004FC0086161020861203208616102086120320E2
:10050C0006108616102086120320861610208612DE
:10051C008610861586161020861203208611061466
:10052C0086161020861206108616102086120320BE
:10053C0086161020861206148616102086120320AA
:10054C0006108616102086128615061586140614BB
:0C055C00861610208612032041140800AF
:10056800C62A803083120313CB00D92AC030CB00AF
:10057800D92A9430CB00D92AD430CB00D92A80305C
:10058800CB00D92A831203134B08013A0319B52A61
:100598004B08023A0319BA2A4B08033A0319BD2A31
:1005A8004B08043A0319C02AC32A4C03F0004B082D
:1005B800F0077008CB007008D5009A204110CE01D2
:1005C8004E084D07840000080319F22A4E084D070B
:1005D80084000008D0000921CE0AE42A411408004A
:1005E80048218A110A128000840AB60A0319B70A38
:0805F800F003031DF42A0800C2
:10060000203083120313A1002030A2002030A30069
:10061000A4013130A500A6014B30A7006530A80029
:100620007930A9002030AA002030AB003A30AC006D
:10063000AD015430AE006930AF006D30B0006530B0
:10064000B1007330B2003A30B300B401C901612285
:1006500003178801890166220130D5009A200C30E9
:10066000D5009A200130CB000130CC002530CD00E0
:10067000B4220130CB000130CC002730CD00B422B1
:100680000230CB000130CC002E30CD00B422CA01A4
:10069000DF217008CA008F2B3730CA000730C8002E
:1006A000CF2B3830CA000830C800CF2B3930CA00F1
:1006B0000930C800CF2B4530CA00CF2B3430CA00D8
:1006C0000430C800CF2B3530CA000530C800CF2B0E
:1006D0003630CA000630C800CF2B7830CA00CF2B86
:1006E0003130CA000130C800CF2B3230CA0002308E
:1006F000C800CF2B3330CA000330C800CF2B2D30B9
:10070000CA00CF2B4330CA00CF2B3030CA00C801FB
:10071000CF2B3D30CA00CF2B2B30CA00CF2B4A083D
:10072000013A03194C2B4A08023A0319512B4A0883
:10073000033A0319562B4A08043A03195B2B4A085B
:10074000053A03195E2B4A08063A0319632B4A0837
:10075000073A0319682B4A08083A03196D2B4A080F
:10076000093A0319702B4A080A3A0319752B4A08EB
:100770000B3A03197A2B4A080C3A03197F2B4A08C3
:100780000D3A0319822B4A080E3A0319852B4A08A1
:100790000F3A0319892B4A08103A03198C2B4A087F
:1007A000453A0319DC2B3508003A031DDA2B4808BB
:1007B000B500DC2B4808B8004A08453A031D052C53
:1007C000F92BC90AB3217008BD007108BE00720878
:1007D000BF007308C000052CC90A052CC901B3214C
:1007E0007008B9007108BA007208BB007308BC0039
:1007F000052C4908003A0319E12B4908013A03196D
:10080000EC2B4908023A0319EE2B0130CB000A30D9
:10081000CC004A08CD00EC214908FF3A031D182CF2
:10082000C9010230CB000A30CC002130CD00B42207
:100830004908CB00CC014230CD0021220230CB0050
:0E0840000A30CC004230CD00B422472B262CCB
:04400E00F22F000786
:00000001FF
