:020000040000FA
:0400000000002E28A6
:040004000034003490
:08000800F0000308F1000A08F2
:10001000F20072088A0071088300F00E700E090069
:100020000000FF30A100F030A3000030A200C0307B
:10003000A4000000A10B1A280000A114A20F1A2886
:10004000A40F1A28A30F1A280800861828282B287E
:0C005000FF308700080000308700080027
:04005C0083160317ED
:1000600000308900831603130230860000308700B9
:0E0070008312031386018701102025203C28EF
:02400E00E228A6
:02401000FF3E71
:00000001FF
