:02000000282AAC
:0E000600533083120313FD00FD0B0728080082
:10001400243083120313FC00B530FD00FD0B1028BF
:0A002400FC0B10280000000008008B
:0C002E00000000000000000000000800BE
:10003A0083120313EA1B23288611242886156A1BB8
:10004A002828061129280615EA1A2D2886102E288E
:10005A0086146A1A322806103328061457183728C5
:10006A00061638280612861617208612EA193F281D
:10007A008611402886156A1944280611452806154E
:10008A00EA18492886104A2886146A184E28061043
:10009A004F2806145718532806165428061286168F
:1000AA0017208612571C5B280A205C2803200800A8
:1000BA0083120313F801F9011030FC00710DF80DD9
:1000CA00F90D7408F8027508031C750FF902031874
:1000DA0075287408F80775080318750FF9070310CF
:0A00EA00F00DF10DFC0B6328080077
:1000F4008312031357106508EA001D2057140800E3
:1001040083120313E8010530680203189028680875
:100114006707840020308000E80A8528680867079C
:1001240084008001E80368086707E9000A30F400E6
:10013400F5016508F0006608F1005D207808F0001C
:100144007908F1003030F0076908840070088000F5
:100154000A30F400F5016508F0006608F1005D203E
:100164007008E5007108E60000307106031DBC2824
:1001740000307006031DBF28C128E8039528080035
:0E0184008312031349088A004808820008000D
:10019200831203135C08930083161418D2280000FC
:0A01A200CD2883121308F0000800B6
:1001AC0083120313E101E2015C08E3005D08E40043
:1001BC0080305D06F00080307002031DE7280030AF
:1001CC005C020318F5280130E1000030E2005C0805
:1001DC00003CE3005D08031C013EE401E4026308FB
:1001EC00E5006408E6005E08E70082200630DF00C8
:1001FC000030E0006008003C031D06295F08003C4D
:10020C00031821295F085E07F20001305F02F0003D
:10021C000030031C013E6002F10070085E07840090
:10022C000008F00072088400700880000130DF02C2
:10023C00031CE00300295E08840020308000610864
:10024C00620403193F29DF01E0015F085E078400A7
:10025C000008203A031D3629DF0A0319E00A2B296E
:10026C000130DF02031CE0035F085E0784002D30C1
:04027C0080000800F6
:100280005229803083120313DC006529C030DC0062
:1002900065299430DC006529D430DC006529803084
:1002A000DC006529831203135C08013A0319412914
:1002B0005C08023A031946295C08033A03194929E4
:1002C0005C08043A03194C294F295D03F0005C08CF
:1002D000F0077008DC007008EA001D205710DF01ED
:1002E0005F085E078400000803197E295F085E0727
:1002F00084000008E5007A20DF0A702957140800FE
:100300008316031386120612061086100611861134
:1003100083128612061286110611861006100A2014
:100320000A200A20861406148616172086120A2030
:100330008616172086120A208616172086120A2093
:1003400006108616172086120A2086161720861297
:10035000861086158616172086120A208611061426
:1003600086161720861206108616172086120A2077
:1003700086161720861206148616172086120A2063
:100380000610861617208612861506158614061482
:0C0390008616172086120A205714080059
:10039C008312031307105B08F000F1010F30700596
:1003AC00DC003030DC04C9205A08DC00C9200714FA
:0203BC00080037
:1003BE00831203134A08DC004B08DD004C30DE00CC
:1003CE00D6200130EA001D200130DC000130DD00B6
:1003DE002030DE0040210130DC000730DD004C30E3
:1003EE00DE0040215308DC005408DD004C30DE00F6
:1003FE00D6200230DC000130DD002730DE00402147
:10040E000230DC000930DD004C30DE0040210800F7
:10041E008316031387128711071683129401403037
:0A042E008316940083129416080050
:10043800C2208A110A128000840AC80A0319C90A4C
:08044800F003031D1C2A08004B
:10045000EA22831603178801890183128713881300
:1004600083160313051485148312071483160710CB
:100470000F220030CA000830CB00D301D401003075
:10048000DA000830DB00CE2180210130EA001D2097
:100490000C30EA001D200130DC000130DD00383076
:1004A000DE0040210230DC000630DD003030DE00AE
:1004B00040211A30FB005E30FC006E30FD00FD0B69
:1004C0005F2AFC0B5F2AFB0B5F2A00000130EA0069
:1004D0001D20DF210518702A0130D5000030D6001C
:1004E000051C8B2A0F304B02031D782AFF304A026D
:1004F00003188B2A00305606031D802A013055064A
:10050000031D8B2ACA0A0319CB0AD30A0319D40A7A
:10051000DF21D501D6018518912A0130D80000309D
:10052000D900851CAD2A4B08003C031D992A4A08B6
:10053000003C0318AD2A00305906031DA12A0130E2
:100540005806031DAD2A0130CA02031CCB03D30A8F
:100550000319D40ADF21D801D9014A08DA004B086F
:10056000DB00CE210730FC007D30FD00FD0BB62AFC
:08057000FC0BB62A6A2ABB2A23
:1005D40020308400283083120313F000C130C80097
:0805E4000230C9001C220800CE
:0E0582004434613474346F343A34203400341D
:100590004434613474346F342034233420343A3496
:0205A000003425
:1005A2005334503449342D344434413443340034C8
:1005B2004334613472346C346F34733420345434C1
:1005C200723475346A3469346C346C346F34003488
:04400E00F22F000786
:00000001FF
